./bx-windows-x64-icu.exe tx-encode -i 660b4a95e90c4491baa92d21c07870d839a770ccbd245411fa963d6a5b207e88:0 -o mrXiqxZe1xAvfkdsNuzP5kW9rxUKq5X1Xk:15000000 -o miudPd3uNyqeyN1ktfAWX1YSv2UGEvcF9X:50000

./bx-windows-x64-icu.exe input-sign c0d518b6bd3fd75ec1224d2ca13d1fef7718126eba6ade57914daa3b0fe8ea41 "dup hash160 [78ce9278e94d6de90a22b23fc475883dfbc422d5] equalverify checksig" 0100000001887e205b6a3d96fa115424bdcc70a739d87078c0212da9ba91440ce9954a0b660000000000ffffffff02c0e1e400000000001976a91478ce9278e94d6de90a22b23fc475883dfbc422d588ac50c30000000000001976a91425322a09dcc10ae461c5ca617818aca8bfc63b3b88ac00000000

./bx-windows-x64-icu.exe input-set "[3044022013366eef853ebb65609e4a5ce4b2439fb7ed8c803aff8fdb4fdbca25b7a4272002205162fba674a5951aa2856b707650d14e4811030ccb745f5157ebc6c8439396ac01] [02e1858acdf7bcc00ec914b9c1dbc8045c385763487290400df07b647f63aca5b3]" 0100000001887e205b6a3d96fa115424bdcc70a739d87078c0212da9ba91440ce9954a0b660000000000ffffffff02c0e1e400000000001976a91478ce9278e94d6de90a22b23fc475883dfbc422d588ac50c30000000000001976a91425322a09dcc10ae461c5ca617818aca8bfc63b3b88ac00000000

./bx-windows-x64-icu.exe input-validate 02e1858acdf7bcc00ec914b9c1dbc8045c385763487290400df07b647f63aca5b3 "dup hash160 [78ce9278e94d6de90a22b23fc475883dfbc422d5] equalverify checksig" 3044022013366eef853ebb65609e4a5ce4b2439fb7ed8c803aff8fdb4fdbca25b7a4272002205162fba674a5951aa2856b707650d14e4811030ccb745f5157ebc6c8439396ac01 0100000001887e205b6a3d96fa115424bdcc70a739d87078c0212da9ba91440ce9954a0b66000000006a473044022013366eef853ebb65609e4a5ce4b2439fb7ed8c803aff8fdb4fdbca25b7a4272002205162fba674a5951aa2856b707650d14e4811030ccb745f5157ebc6c8439396ac012102e1858acdf7bcc00ec914b9c1dbc8045c385763487290400df07b647f63aca5b3ffffffff02c0e1e400000000001976a91478ce9278e94d6de90a22b23fc475883dfbc422d588ac50c30000000000001976a91425322a09dcc10ae461c5ca617818aca8bfc63b3b88ac00000000

./bx-windows-x64-icu.exe validate-tx 0100000001887e205b6a3d96fa115424bdcc70a739d87078c0212da9ba91440ce9954a0b66000000006a473044022013366eef853ebb65609e4a5ce4b2439fb7ed8c803aff8fdb4fdbca25b7a4272002205162fba674a5951aa2856b707650d14e4811030ccb745f5157ebc6c8439396ac012102e1858acdf7bcc00ec914b9c1dbc8045c385763487290400df07b647f63aca5b3ffffffff02c0e1e400000000001976a91478ce9278e94d6de90a22b23fc475883dfbc422d588ac50c30000000000001976a91425322a09dcc10ae461c5ca617818aca8bfc63b3b88ac00000000

// sign right
3044022013366eef853ebb65609e4a5ce4b2439fb7ed8c803aff8fdb4fdbca25b7a4272002205162fba674a5951aa2856b707650d14e4811030ccb745f5157ebc6c8439396ac

0100000001887e205b6a3d96fa115424bdcc70a739d87078c0212da9ba91440ce9954a0b66000000006a473044022013366eef853ebb65609e4a5ce4b2439fb7ed8c803aff8fdb4fdbca25b7a4272002205162fba674a5951aa2856b707650d14e4811030ccb745f5157ebc6c8439396ac012102e1858acdf7bcc00ec914b9c1dbc8045c385763487290400df07b647f63aca5b3ffffffff02c0e1e400000000001976a91478ce9278e94d6de90a22b23fc475883dfbc422d588ac50c30000000000001976a91425322a09dcc10ae461c5ca617818aca8bfc63b3b88ac00000000

01000000
01
887e205b6a3d96fa115424bdcc70a739d87078c0212da9ba91440ce9954a0b66
00000000
19
76a91478ce9278e94d6de90a22b23fc475883dfbc422d588ac
ffffffff
02
c0e1e40000000000
19
76a91478ce9278e94d6de90a22b23fc475883dfbc422d588ac
50c3000000000000
19
76a91425322a09dcc10ae461c5ca617818aca8bfc63b3b88ac
00000000


01000000
01
887e205b6a3d96fa115424bdcc70a739d87078c0212da9ba91440ce9954a0b66
00000000
6a
47
3044022013366eef853ebb65609e4a5ce4b2439fb7ed8c803aff8fdb4fdbca25b7a4272002205162fba674a5951aa2856b707650d14e4811030ccb745f5157ebc6c8439396ac
01	// sign type sign all
21
02e1858acdf7bcc00ec914b9c1dbc8045c385763487290400df07b647f63aca5b3
ffffffff
02
c0e1e40000000000
1976a91478ce9278e94d6de90a22b23fc475883dfbc422d588ac
50c3000000000000
1976a91425322a09dcc10ae461c5ca617818aca8bfc63b3b88ac
00000000

01000000 	// version little endain
01		 	// input count
bef67eb810be01877df0ff51b8b3512c207515f57fdf1797215f94350b0bd321	// previous tx hash
00000000	// previous output index
49			// sign script bytes
48
3045022100f871d1e0a867226fe1a31a127072ca0aabd55b5e3f9c6597d0654d99b85d74e802203015e7a3c1a19e9c39c15ab8e78a659061fef2bf5f19ed951e12f969a7082c74
01			// sign all 
feffffff	// sequence
02			// output count
00196bee00000000	// output value
1976a914e3b1368fe79a95ba21616a68518c68e73cd3e67588ac	// pubkey script
00ca9a3b00000000	// output value
1976a9149d7943969b6cd236c0034d8c347afe5bd4c6399588ac	// pubkey script
80000000			// locktime

01000000
02
79e97c098f7f38903edfd0832b4d4bb3401bd503c20231b3bf28c632eb8199d8
00000000
8b
48
3045022100dcdfeb8e5939d0b7065378dfe8e62ad76a9fcacb53af2b4138e2c366dc91ba6f02207bcfb88e893079fbe541f53715f4049f4cabf48543fc0dfcf4fdd157ae67074401
41
04ac9aebc612406d7f282b7e4290e53b393b8b617bb9eff6ce1eee0f7dee0524d73d3659b9296cf27b419fb4c318d5d0b93450788e98102086fa9df27ef7ae6e69
ffffffff
6c5865500d3ceff4a6a1f084309266666394a558f84ac4ed280cc5eea08c7db7
00000000
8a
47
3044022002f5cf95fb854a85a76046db5e2ef49f60105ffffaa3aa68a2038b3fedc549b802203f8e216dace503576ed4e5c6ec0cffde0e596e111b60d00161f720e49239719101
41
04ac9aebc612406d7f282b7e4290e53b393b8b617bb9eff6ce1eee0f7dee0524d73d3659b9296cf27b419fb4c318d5d0b93450788e98102086fa9df27ef7ae6e69
ffffffff
03
0a13010000000000
1976a9148a8a33c02da0b834b7466b4f9c1d277ea8b187a588ac
2202000000000000
1976a914fdc827f14feeebb98d44c033950d743ade05a5a588ac
0000000000000000
16	// len
6a	// OP_RETURN
14	// pushdata(x014)
6f6d6e69
0000000000000155
000002ba7def3000		// value count
00000000


01000000
02
9fe5172d6b9fb08fe89e77c2a87bdc0548fb4c4d98f020d1c9ef6391e63472c8
03000000
6b48
3045022100a828a0283c06dd50da41ed31de1124a043f6e806a1045fb6c05c3a2bc0031c6e022073f94c1bfbe4192fa07c2e94af4e1588d1bf62c04b235279b3c40ddd54ccf30601
21030ea1a909ce67ee9a7497e0c0f0655ad5d636b215cf771427ebde7af423f850e3
ffffffff
9fe5172d6b9fb08fe89e77c2a87bdc0548fb4c4d98f020d1c9ef6391e63472c8
02000000
6a47
304402206e7f79ae9bb8c4c34a643055d24920f29d525ecf0e49dc9812a690604a97a73402203385343200730626429e0eb4c043946521b3628229b6984348c5d1001d2feb2d01
21030ea1a909ce67ee9a7497e0c0f0655ad5d636b215cf771427ebde7af423f850e3
ffffffff
04
7017000000000000
1976a9141d53b3a9b3055f0b1449d070cbfc40e8421f50e588ac

0000000000000000
08	// len
6a	// OP_RETURN
06	// pushdata
434302150001

68e1040000000000
1976a914efef8a91348f6f5016d77add0c43580a03df62cf88ac
7017000000000000
1976a914efef8a91348f6f5016d77add0c43580a03df62cf88ac
00000000